S012000041726475696E6F4475652E7372656322
S214080000B8240720550208005102080051020800CB
S21408001051020800510208005102080000000000C2
S2140800200000000000000000000000005102080068
S21408003051020800000000005102080051020800A2
S2140800405102080051020800510208005102080037
S2140800505102080051020800510208005102080027
S214080060510208005102080000000000A90108001B
S214080070BD010800D1010800E501080000000000E5
S2140800800000000051020800510208005102080052
S21408009051020800510208005102080051020800E7
S2140800A05102080000000000510208005102080032
S2140800B051020800510208005102080051020800C7
S2140800C051020800510208005102080051020800B7
S2140800D051020800510208005102080051020800A7
S2140800E05102080051020800510208005102080097
S2140800F05102080010B5054C237833B9044B13B1E8
S2140801000448AFF300800123237010BD280407209D
S21408011000000000E004080008B5064B1BB10648BE
S2140801200649AFF300800648036813B1054B03B1D0
S214080130984708BD00000000E00408002C040720CB
S214080140E004080000000000C06C7047806C704730
S2140801502DE9F04104460E46104B984705462046C2
S2140801600F4B9847054017D00E4F07F10C046C3715
S21408017054F80C3CB3420AD154F8081C294206D05D
S21408018023683046984754F8083C25EA0305BC42DD
S21408019002D01034002DEBD1BDE8F08149010800EB
S2140801A04D0108004404072008B502480B21024BFD
S2140801B0984708BD000E0E405101080008B50248D1
S2140801C00C21024B984708BD00100E40510108004C
S2140801D008B502480D21024B984708BD00120E408C
S2140801E05101080008B502480E21024B984708BD81
S2140801F000140E40510108002C2820D81F280DD8BE
S214080200124B9A69012383401A40934219D001235E
S21408021003FA00F00D4B1861002070470B4BD3F81B
S21408022008212038012383401A4093420BD001232B
S21408023003FA00F0054BC3F80001002070470120C0
S2140802407047002070470020704700BF00060E4029
S214080250FEE700BF10B51E4B1E4A9A4203D01E4B3F
S2140802601B4A9A4204D31D4B1D4A9A420FD31AE0E2
S2140802701C4B1D4CE41A24F00304043400231448D1
S21408028014495A581A500433A342FAD1EBE7174BCD
S2140802901749C91A21F003011A1D1144002243F810
S2140802A0042F8B42FBD1134A22F0604323F07F03CE
S2140802B011498B6002F16042B2F5801F03D28A684A
S2140802C042F000528A600D4B98470D4B9847FEE760
S2140802D000000720E004080028040720B4040720CC
S2140802E028040720040007202B04072024040720DE
S2140802F0AF0407200000080000ED00E06D030800CA
S21408030019030800034B4FF000621A61C3F8A020D7
S2140803101A63704700100E4008B54FF002220E4BC5
S2140803201A600B200D4CA0470C20A0470D20A047B4
S2140803300E20A0470A4B98470A494FF000600A4A21
S214080340CB6B13F0006F14BF48630863136813F091
S214080350010FFBD0F4E700BF541A0E40F90108005D
S2140803600503080000100E40581A0E4070B50F4ED0
S2140803700F4D761BB61007D0043D0024013455F8FF
S214080380043F9847A642F9D10A4E0B4D00F096F85E
S214080390761BB61008D0043D0024013455F8043FF7
S2140803A09847A642F9D170BD70BD00BFC8040800C2
S2140803B0C8040800D0040800C8040800024B13B19B
S2140803C0024800F005B8704700000000DD0308008A
S2140803D0014600200246034600F018B838B5094D15
S2140803E0094C641BA41018BF05EB840505D0013C16
S2140803F055F8043D9847002CF9D1BDE8384000F080
S21408040067B800BFDC040800E0040800F0B5274C15
S21408041085B026680746D6F84841002C40D065685F
S2140804201F2D1EDD224818B94FF0FF3005B0F0BD6D
S2140804304FF4C870039102920193AFF300800399BA
S2140804400446029A019B0028EED0D6F848510020B0
S214080450256060600546C6F84841C4F88801C4F8B7
S2140804608C013FB96B1C00200235636044F82510E8
S21408047005B0F0BD0126AE4004EB8500C0F8882024
S214080480D4F88821022F42EA0602C4F88821C0F868
S2140804900831E7D1D4F88C311E43C4F88C61E1E703
S2140804A006F5A674C6F84841B9E700BFB8040800C0
S2140804B0000000004300000000000720F8B500BF59
S2140804C0F8BC08BC9E467047BD0308001901080022
S2140804D0F8B500BFF8BC08BC9E467047F500080093
S2140804E000000000EC02072054030720BC03072086
S2140804F000000000000000000000000000000000EF
S21408050000000000000000000000000000000000DE
S21408051000000000B404080000000000000000000E
S21408052000000000000000000000000000000000BE
S21408053000000000000000000000000000000000AE
S214080540000000000000000000000000000000009E
S214080550000000000000000000000000000000008E
S214080560000000000000000000000000000000007E
S214080570000000000000000000000000000000006E
S214080580000000000000000001000000000000005D
S2140805900E33CDAB34126DE6ECDE05000B00000022
S2140805A0000000000000000000000000000000003E
S2140805B0000000000000000000000000000000002E
S2140805C0000000000000000000000000000000001E
S2140805D0000000000000000000000000000000000E
S8040802559C
